:100000000C9434000C9451000C9451000C94510049
:100010000C9451000C9451000C9451000C9451001C
:100020000C9451000C9468000C9451000C945100F5
:100030000C9451000C9451000C9451000C945100FC
:100040000C9451000C9451000C9451000C945100EC
:100050000C9451000C9451000C9451000C945100DC
:100060000C9451000C94510011241FBECFEFD8E026
:10007000DEBFCDBF12E0A0E0B1E0E2E8FEE002C0EA
:1000800005900D92AA37B107D9F722E0AAE7B2E0AE
:1000900001C01D92AF37B207E1F70E949F010C9497
:1000A0003F070C9400000F93FC018081841306C06D
:1000B00080E38083DB018C918F5F8C93808182133E
:1000C00005C0DB018C9181508C9300830F910895C2
:1000D0001F920F920FB60F9211242F938F939F931D
:1000E00080917A0290917B02019690937B0280939B
:1000F0007A02883B9B4079F580910F018F5F809356
:100100000F0180910301882301F180910401803364
:10011000B9F480910501803399F480910601803310
:1001200079F480910701803359F48091080180337C
:1001300039F480910901803319F41092030105C04C
:10014000809109018150809309011092B2001092B0
:100150007B0210927A029F918F912F910F900FBE88
:100160000F901F90189516BC21E024BD2EE3AC0122
:10017000249FC001259F900D1124009721F0A8997C
:10018000FCCF0197FACF81E085BB0895FC0193B1C4
:10019000923041F480818F5F808384EF91E00E94F0
:1001A000B300089593B1943041F4808181508083ED
:1001B00084EF91E00E94B300089583B1813059F437
:1001C00010927C029091030189278093030184EFB0
:1001D00091E00E94B3000895CF9381E08BB9C6E00F
:1001E000C8B98AE090E00E94B30018B88AE090E0B5
:1001F0000E94B30082E08BB9C8B98AE090E00E9407
:10020000B30018B88AE090E00E94B3008FE08BB989
:10021000C8B98AE090E00E94B30018B88AE090E084
:100220000E94B30088E38BB9C8B98AE090E00E94CD
:10023000B30018B88AE090E00E94B30084E18BB963
:10024000C8B98AE090E00E94B30018B88AE090E054
:100250000E94B30080E88BB9C8B98AE090E00E94A0
:10026000B30018B88AE090E00E94B300CF910895DF
:100270008BB983E088B981E088B981E090E00E9481
:10028000B30008958BB985E088B981E088B981E031
:1002900090E00E94B300089582309105A1F01CF413
:1002A000019739F02DC083309105B9F00497F9F02A
:1002B00027C060586BB982E088B981E090E00E9465
:1002C000B30018B81DC060546BB982E088B981E0F2
:1002D00090E00E94B30018B813C060586BB984E076
:1002E00088B98AE090E00E94B30018B809C0605451
:1002F0006BB984E088B98AE090E00E94B30018B836
:1003000081E090E00E94B3000895CF93DF93EC0169
:100310008881882321F021960E943801F9CFDF914E
:10032000CF910895CF93DF93EC018881882321F04A
:1003300021960E944201F9CFDF91CF910895CF938A
:10034000DF93CDB7DEB7C457D1090FB6F894DEBF3F
:100350000FBECDBF1092B2001092B00081E080932A
:10036000B1008093700078948CE0E0E1F1E0DE0170
:100370005F9601900D928A95E1F78CE0ECE1F1E057
:10038000DE019B9601900D928A95E1F78CE0E8E200
:10039000F1E0DE01D79601900D928A95E1F78AE0AF
:1003A000E4E3F1E0DE01AD5BBF4F01900D928A9571
:1003B000E1F767961FAE1EAE679786E090E0659600
:1003C0009FAF8EAF65978EE391E02F969FAF8EAF74
:1003D0002F9780E090E084309105CCF4DC01AA0FE7
:1003E000BB1F47E150E04C0F5D1FA40FB51FFC0180
:1003F0003296EE0FFF1F4FE150E04C0F5D1FE40FF0
:10040000F51F408151814D935C930196E4CFCE015D
:10041000479663969FAF8EAF63970FB6F894DEBF93
:100420000FBECDBFA1961FAE1EAEA19786E090E095
:100430006F969FAF8EAF6F978BA59CA569969FAF68
:100440008EAF699780E090E084309105CCF4DC01B8
:10045000AA0FBB1F4FE050E04C0F5D1FA40FB51F4C
:10046000FC013296EE0FFF1F4BE250E04C0F5D1F78
:10047000E40FF51F408151814D935C930196E4CFC9
:10048000CE010F966D969FAF8EAF6D970FB6F89415
:10049000DEBF0FBECDBFAB961FAE1EAEAB9786E0E4
:1004A00090E0A9969FAF8EAFA9978FA998ADA3961C
:1004B0009FAF8EAFA39780E090E084309105CCF49D
:1004C000DC01AA0FBB1F47E050E04C0F5D1FA40FDB
:1004D000B51FFC013296EE0FFF1F47E350E04C0FB3
:1004E0005D1FE40FF51F408151814D935C93019690
:1004F000E4CFCE010796A7969FAF8EAFA7970FB612
:10050000F894DEBF0FBECDBFE5961FAE1EAEE597D9
:1005100085E090E0E3969FAF8EAFE39725968EAD92
:100520009FAD2597AD969FAF8EAFAD9780E090E0E1
:1005300083309105CCF4DC01AA0FBB1F41E050E0F1
:100540004C0F5D1FA40FB51FFC013296EE0FFF1F6D
:1005500043E450E04C0F5D1FE40FF51F40815181D3
:100560004D935C930196E4CFCE010196E1969FAF47
:100570008EAFE1970FB6F894DEBF0FBECDBF15B8B2
:100580008FEF8AB914B887E087B988E290E00E94BB
:10059000B3000E94EC00E12CF12C09E32FE24AE3C6
:1005A0006EE071E08FE091E00E94530005E32FE2DE
:1005B00046E36DE071E08EE091E00E94530009E3B4
:1005C0002FE24AE36CE071E08DE091E00E9453007D
:1005D00005E32FE246E36BE071E08CE091E00E94DE
:1005E000530009E32FE24AE368E071E089E091E01B
:1005F0000E94530005E32FE246E367E071E088E0E4
:1006000091E00E94530009E32FE24AE366E071E0C3
:1006100087E091E00E94530005E32FE246E365E0A6
:1006200071E086E091E00E94530009E32FE24AE383
:1006300064E071E085E091E00E9453008091040144
:100640008A3319F480E38093040180910B018A338B
:1006500041F480E380930B0180910A018F5F8093C6
:100660000A0180910B018F3261F480910A019FECA5
:10067000980F923030F4815080930A0189E380937F
:100680000B0180910B018F3251F480910A0180336C
:1006900031F4815080930A0183E380930B018091B0
:1006A0000A018F3219F482E380930A0180910A01D2
:1006B000823349F480910B01843329F480E38093E1
:1006C0000B0180930A0160E070E081E090E00E94FD
:1006D0004C01809104010E943801809105010E9423
:1006E00038018AE30E943801809106010E94380196
:1006F000809107010E9438018AE30E9438018091AD
:1007000008010E943801809109010E94380160E0CF
:1007100070E082E090E00E944C018091000188230B
:1007200049F080910A010E94380180910B010E94DA
:10073000380138C080910B01803389F490910A010F
:10074000903369F481E30E94380182E30E9438010A
:1007500082E591E0909302018093010123C08333ED
:1007600098F080910A01813378F081500E9438011D
:1007700080910B0182500E94380182E591E09093B4
:100780000201809301010EC080910A010E9438018C
:1007900080910B010E94380185E591E09093020160
:1007A000809301018AE30E94380180910C010E942C
:1007B000380180910D010E9438018AE30E943801BE
:1007C00080910E010E94380180910F010E94380132
:1007D00080910101909102010E948501E114F104D0
:1007E00009F053C080917C0281114FC064E170E038
:1007F00081E090E00E944C0188E591E00E94850133
:1008000064E170E082E090E00E944C018CE691E0AF
:100810000E94850164E170E083E090E00E944C0159
:100820008CE691E00E94920183B1863079F480E3F6
:100830008093040180930501809306018093070152
:1008400080930801809309011092030183B18430E1
:1008500031F41092030184EF91E00E94B30083B160
:10086000823039F481E08093030184EF91E00E94AB
:10087000B30083B1813009F090CE84EF91E00E9403
:10088000B300EE24E394F12C88CE51E0E516F10498
:1008900009F0A9C080917C028111A5C064E170E0DB
:1008A00081E090E00E944C012F968EAD9FAD2F9776
:1008B0000E94850164E170E082E090E00E944C01BA
:1008C0006396EEADFFAD639767968EAD9FAD67976C
:1008D00065966EAD7FAD6597625071090E941707EE
:1008E000880F991FE80FF91F808191810E9485016F
:1008F00064E170E083E090E00E944C016396EEAD0D
:10090000FFAD639767968EAD9FAD6797019665962D
:100910006EAD7FAD6597625071090E941707880F11
:10092000991FE80FF91F808191810E94920183B184
:10093000813039F567968EAD9FAD6797813091050F
:1009400051F01CF4892BA9F018C08230910549F0B0
:10095000039761F012C00F2EF3E0EF2EF12CF02D73
:100960000CC06894EE24E2F8F12C07C0E12CF12CC5
:1009700004C06894EE24E1F8F12C84EF91E00E9429
:10098000B30083B18230A9F467968EAD9FAD6797AF
:10099000019665966EAD7FAD6597625071090E94B4
:1009A000170767969FAF8EAF679784EF91E00E941D
:1009B000B30083B1843009F0F0CD67968EAD9FAD62
:1009C0006797019765966EAD7FAD65976250710927
:1009D0000E94170767969FAF8EAF679784EF91E0ED
:1009E0000E94B300DACD82E0E816F10409F0B7C046
:1009F00080917C028111B3C064E170E081E090E0FD
:100A00000E944C0169968EAD9FAD69970E94850149
:100A100064E170E082E090E00E944C016D96EEADE2
:100A2000FFAD6D97A1968EAD9FADA1976F966EAD00
:100A30007FAD6F97625071090E941707880F991F49
:100A4000E80FF91F808191810E94850164E170E0C7
:100A500083E090E00E944C016D96EEADFFAD6D9786
:100A6000A1968EAD9FADA19701966F966EAD7FADAD
:100A70006F97625071090E941707880F991FE80F3E
:100A8000F91F808191810E94920183B18130A9F583
:100A9000A1968EAD9FADA19781309105A1F01CF478
:100AA000892B39F026C082309105B9F00397F9F00F
:100AB00020C081E080937C028BE091E090937E02E5
:100AC00080937D0216C081E080937C028DE091E0EE
:100AD00090937E0280937D020CC081E080937C0223
:100AE0008FE091E090937E0280937D0202C0E12C22
:100AF000F12C84EF91E00E94B30083B18230A9F41D
:100B0000A1968EAD9FADA19701966F966EAD7FAD0C
:100B10006F97625071090E941707A1969FAF8EAF21
:100B2000A19784EF91E00E94B30083B1843009F073
:100B300034CDA1968EAD9FADA19701976F966EAD06
:100B40007FAD6F97625071090E941707A1969FAF02
:100B50008EAFA19784EF91E00E94B3001ECD43E0D9
:100B6000E416F10409F0B7C080917C028111B3C092
:100B700064E170E081E090E00E944C01A3968EADAC
:100B80009FADA3970E94850164E170E082E090E050
:100B90000E944C01A796EEADFFADA797AB968EAD28
:100BA0009FADAB97A9966EAD7FADA99762507109C5
:100BB0000E941707880F991FE80FF91F8081918104
:100BC0000E94850164E170E083E090E00E944C01A6
:100BD000A796EEADFFADA797AB968EAD9FADAB9749
:100BE0000196A9966EAD7FADA997625071090E94DA
:100BF0001707880F991FE80FF91F808191810E94C4
:100C0000920183B18130A9F5AB968EAD9FADAB97C4
:100C100081309105A1F01CF4892B39F026C0823077
:100C20009105B9F00397F9F020C081E080937C0230
:100C300085E091E090937E0280937D0216C081E072
:100C400080937C0287E091E090937E0280937D0206
:100C50000CC081E080937C0289E091E090937E0259
:100C600080937D0202C0E12CF12C84EF91E00E9480
:100C7000B30083B18230A9F4AB968EAD9FADAB9734
:100C80000196A9966EAD7FADA997625071090E9439
:100C90001707AB969FAF8EAFAB9784EF91E00E94A2
:100CA000B30083B1843009F078CCAB968EAD9FADA4
:100CB000AB970197A9966EAD7FADA9976250710968
:100CC0000E941707AB969FAF8EAFAB9784EF91E072
:100CD0000E94B30062CC54E0E516F10409F09BC019
:100CE00080917C02811197C064E170E081E090E026
:100CF0000E944C01AD968EAD9FADAD970E948501CF
:100D000064E170E082E090E00E944C01E196EEAD7B
:100D1000FFADE197E5968EAD9FADE597E3966EAD9D
:100D20007FADE397625071090E941707880F991FE2
:100D3000E80FF91F808191810E94850164E170E0D4
:100D400083E090E00E944C01E196EEADFFADE197AB
:100D5000E5968EAD9FADE5970196E3966EAD7FADBE
:100D6000E397625071090E941707880F991FE80FD7
:100D7000F91F808191810E94920183B18130C9F471
:100D8000E5968EAD9FADE5978130910541F08230BB
:100D9000910549F0892B49F41092000106C081E0C9
:100DA0008093000102C0E12CF12C84EF91E00E94BD
:100DB000B30083B18230A9F4E5968EAD9FADE5977F
:100DC0000196E3966EAD7FADE397625071090E9484
:100DD0001707E5969FAF8EAFE59784EF91E00E94ED
:100DE000B30083B1843009F0D8CBE5968EAD9FADCA
:100DF000E5970197E3966EAD7FADE3976250710979
:100E00000E941707E5969FAF8EAFE59784EF91E0BC
:100E10000E94B300C2CB80917C02882309F4BDCB31
:100E200080917D0290917E020E94C600B6CB97FB16
:100E3000072E16F4009407D077FD09D00E942B07E7
:100E400007FC05D03EF4909581959F4F08957095CD
:100E500061957F4F0895AA1BBB1B51E107C0AA1FD4
:100E6000BB1FA617B70710F0A61BB70B881F991F4B
:100E70005A95A9F780959095BC01CD010895F894F5
:020E8000FFCFA2
:100E8200017E01013030303030303030303030309F
:100E92003E016C0181019601AB01C001D5016C01DB
:100EA200E901FE011302C00128026C01E901FE0101
:100EB2001302C0013C026C0150026502C0012020F5
:100EC20020202020204D656E7531202020202020FA
:100ED2002000504D00414D00707265737320746F95
:100EE20020656E746572206D656E7500202020206D
:100EF20020202020202020202020202020202020F0
:100F0200002020202020205365742074696D652004
:100F1200202020202000205365742073746F707786
:100F2200617463682074696D652000202020202090
:100F32002053657474696E6773202020202020007E
:100F42002020202020202045786974202020202085
:100F52002020202000202020202020204D656E759A
:100F6200322020202020202000202020202020535A
:100F7200657420686F7572202020202020002020B8
:100F8200202020536574206D696E757465202020C1
:100F92002020002020202020536574207365636F79
:100FA2006E64202020202000202020202020204DA0
:100FB200656E753320202020202020002020202054
:100FC2002020204D656E7534202020202020200016
:100FD2002053656C65637420313220646973706CD0
:100FE20061792020002053656C65637420323420BF
:0A0FF200646973706C6179202000BF
:00000001FF
